:100000000C9434000C9451000C9451000C94510049
:100010000C9451000C9451000C9451000C9451001C
:100020000C9451000C9451000C9451000C9451000C
:100030000C9451000C9451000C9451000C945100FC
:100040000C9451000C9451000C9451000C945100EC
:100050000C9451000C9451000C9451000C945100DC
:100060000C9468000C94510011241FBECFEFD4E013
:10007000DEBFCDBF11E0A0E0B1E0E6EBF1E002C0F1
:1000800005900D92A030B107D9F711E0A0E0B1E0E2
:1000900001C01D92AF32B107E1F70E94C8000C9475
:1000A000D9000C940000F89480E50E9459007894DF
:1000B00008958093BA00ECEBF0E080818F7D80831F
:1000C0008081856480838FEF809300017894089508
:1000D0001F920F920FB60F9211248F939F93EF935D
:1000E000FF938091B90090E0887F907080389105EF
:1000F000A9F08138910524F480369105E9F507C00F
:10010000883A910501F1883B9105B1F51CC085EC59
:100110008093BC008FEF8093000131C08091BB00C1
:10012000909100019F3F41F4853118F480930001C4
:1001300023C01092000120C0E0910001F0E0E55ED4
:10014000FE4F80830EC0809100018F3F11F410920A
:100150000001E0910001F0E0EB5FFE4F80818093B1
:10016000BB00809100018F5F8093000180910001AE
:10017000833110F085E801C085EC8093BC00FF91CD
:10018000EF919F918F910F900FBE0F901F90189538
:100190000E94530081E020911B0190911C012A32A2
:1001A00029F4973119F480930501F5CF10920501D8
:0601B000F2CFF894FFCF2E
:00000001FF
